{
  "contractName": "Exchange",
  "abi": [
    {
      "constant": false,
      "inputs": [],
      "name": "acceptOwnership",
      "outputs": [],
      "payable": false,
      "stateMutability": "nonpayable",
      "type": "function"
    },
    {
      "constant": true,
      "inputs": [],
      "name": "owner",
      "outputs": [
        {
          "name": "",
          "type": "address"
        }
      ],
      "payable": false,
      "stateMutability": "view",
      "type": "function"
    },
    {
      "constant": true,
      "inputs": [],
      "name": "newOwner",
      "outputs": [
        {
          "name": "",
          "type": "address"
        }
      ],
      "payable": false,
      "stateMutability": "view",
      "type": "function"
    },
    {
      "constant": false,
      "inputs": [
        {
          "name": "_newOwner",
          "type": "address"
        }
      ],
      "name": "transferOwnership",
      "outputs": [],
      "payable": false,
      "stateMutability": "nonpayable",
      "type": "function"
    },
    {
      "anonymous": false,
      "inputs": [
        {
          "indexed": true,
          "name": "_from",
          "type": "address"
        },
        {
          "indexed": true,
          "name": "_symbolIndex",
          "type": "uint256"
        },
        {
          "indexed": false,
          "name": "_amount",
          "type": "uint256"
        },
        {
          "indexed": false,
          "name": "_timestamp",
          "type": "uint256"
        }
      ],
      "name": "DepositForTokenReceived",
      "type": "event"
    },
    {
      "anonymous": false,
      "inputs": [
        {
          "indexed": true,
          "name": "_to",
          "type": "address"
        },
        {
          "indexed": true,
          "name": "_symbolIndex",
          "type": "uint256"
        },
        {
          "indexed": false,
          "name": "_amount",
          "type": "uint256"
        },
        {
          "indexed": false,
          "name": "_timestamp",
          "type": "uint256"
        }
      ],
      "name": "WithdrawlToken",
      "type": "event"
    },
    {
      "anonymous": false,
      "inputs": [
        {
          "indexed": true,
          "name": "_from",
          "type": "address"
        },
        {
          "indexed": false,
          "name": "_amount",
          "type": "uint256"
        },
        {
          "indexed": false,
          "name": "_timestamp",
          "type": "uint256"
        }
      ],
      "name": "DepositForEthReceived",
      "type": "event"
    },
    {
      "anonymous": false,
      "inputs": [
        {
          "indexed": true,
          "name": "_to",
          "type": "address"
        },
        {
          "indexed": false,
          "name": "_amount",
          "type": "uint256"
        },
        {
          "indexed": false,
          "name": "_timestamp",
          "type": "uint256"
        }
      ],
      "name": "WithdrawlEth",
      "type": "event"
    },
    {
      "anonymous": false,
      "inputs": [
        {
          "indexed": true,
          "name": "_symbolIndex",
          "type": "uint256"
        },
        {
          "indexed": true,
          "name": "_who",
          "type": "address"
        },
        {
          "indexed": false,
          "name": "_amountTokens",
          "type": "uint256"
        },
        {
          "indexed": false,
          "name": "_priceInWei",
          "type": "uint256"
        },
        {
          "indexed": false,
          "name": "_orderKey",
          "type": "uint256"
        }
      ],
      "name": "LimitSellOrderCreated",
      "type": "event"
    },
    {
      "anonymous": false,
      "inputs": [
        {
          "indexed": true,
          "name": "_symbolIndex",
          "type": "uint256"
        },
        {
          "indexed": false,
          "name": "_amount",
          "type": "uint256"
        },
        {
          "indexed": false,
          "name": "_priceInWei",
          "type": "uint256"
        },
        {
          "indexed": false,
          "name": "_orderKey",
          "type": "uint256"
        }
      ],
      "name": "SellOrderFulfilled",
      "type": "event"
    },
    {
      "anonymous": false,
      "inputs": [
        {
          "indexed": true,
          "name": "_symbolIndex",
          "type": "uint256"
        },
        {
          "indexed": false,
          "name": "_priceInWei",
          "type": "uint256"
        },
        {
          "indexed": false,
          "name": "_orderKey",
          "type": "uint256"
        }
      ],
      "name": "SellOrderCanceled",
      "type": "event"
    },
    {
      "anonymous": false,
      "inputs": [
        {
          "indexed": true,
          "name": "_symbolIndex",
          "type": "uint256"
        },
        {
          "indexed": true,
          "name": "_who",
          "type": "address"
        },
        {
          "indexed": false,
          "name": "_amountTokens",
          "type": "uint256"
        },
        {
          "indexed": false,
          "name": "_priceInWei",
          "type": "uint256"
        },
        {
          "indexed": false,
          "name": "_orderKey",
          "type": "uint256"
        }
      ],
      "name": "LimitBuyOrderCreated",
      "type": "event"
    },
    {
      "anonymous": false,
      "inputs": [
        {
          "indexed": true,
          "name": "_symbolIndex",
          "type": "uint256"
        },
        {
          "indexed": false,
          "name": "_amount",
          "type": "uint256"
        },
        {
          "indexed": false,
          "name": "_priceInWei",
          "type": "uint256"
        },
        {
          "indexed": false,
          "name": "_orderKey",
          "type": "uint256"
        }
      ],
      "name": "BuyOrderFulfilled",
      "type": "event"
    },
    {
      "anonymous": false,
      "inputs": [
        {
          "indexed": true,
          "name": "_symbolIndex",
          "type": "uint256"
        },
        {
          "indexed": false,
          "name": "_priceInWei",
          "type": "uint256"
        },
        {
          "indexed": false,
          "name": "_orderKey",
          "type": "uint256"
        }
      ],
      "name": "BuyOrderCanceled",
      "type": "event"
    },
    {
      "anonymous": false,
      "inputs": [
        {
          "indexed": false,
          "name": "_symbolIndex",
          "type": "uint256"
        },
        {
          "indexed": false,
          "name": "_token",
          "type": "string"
        },
        {
          "indexed": false,
          "name": "_timestamp",
          "type": "uint256"
        }
      ],
      "name": "TokenAddedToSystem",
      "type": "event"
    },
    {
      "anonymous": false,
      "inputs": [
        {
          "indexed": true,
          "name": "_from",
          "type": "address"
        },
        {
          "indexed": true,
          "name": "_to",
          "type": "address"
        }
      ],
      "name": "OwnershipTransferred",
      "type": "event"
    },
    {
      "constant": false,
      "inputs": [],
      "name": "depositEther",
      "outputs": [],
      "payable": true,
      "stateMutability": "payable",
      "type": "function"
    },
    {
      "constant": false,
      "inputs": [
        {
          "name": "amountInWei",
          "type": "uint256"
        }
      ],
      "name": "withdrawEther",
      "outputs": [],
      "payable": false,
      "stateMutability": "nonpayable",
      "type": "function"
    },
    {
      "constant": true,
      "inputs": [],
      "name": "getEthBalanceInWei",
      "outputs": [
        {
          "name": "",
          "type": "uint256"
        }
      ],
      "payable": false,
      "stateMutability": "view",
      "type": "function"
    },
    {
      "constant": false,
      "inputs": [
        {
          "name": "symbolName",
          "type": "string"
        },
        {
          "name": "erc20TokenAddress",
          "type": "address"
        }
      ],
      "name": "addToken",
      "outputs": [],
      "payable": false,
      "stateMutability": "nonpayable",
      "type": "function"
    },
    {
      "constant": true,
      "inputs": [
        {
          "name": "symbolName",
          "type": "string"
        }
      ],
      "name": "hasToken",
      "outputs": [
        {
          "name": "",
          "type": "bool"
        }
      ],
      "payable": false,
      "stateMutability": "view",
      "type": "function"
    },
    {
      "constant": false,
      "inputs": [
        {
          "name": "symbolName",
          "type": "string"
        }
      ],
      "name": "getSymbolIndexOrThrow",
      "outputs": [
        {
          "name": "",
          "type": "uint8"
        }
      ],
      "payable": false,
      "stateMutability": "nonpayable",
      "type": "function"
    },
    {
      "constant": false,
      "inputs": [
        {
          "name": "symbolName",
          "type": "string"
        },
        {
          "name": "amount",
          "type": "uint256"
        }
      ],
      "name": "depositToken",
      "outputs": [],
      "payable": false,
      "stateMutability": "nonpayable",
      "type": "function"
    },
    {
      "constant": false,
      "inputs": [
        {
          "name": "symbolName",
          "type": "string"
        },
        {
          "name": "amount",
          "type": "uint256"
        }
      ],
      "name": "withdrawToken",
      "outputs": [],
      "payable": false,
      "stateMutability": "nonpayable",
      "type": "function"
    },
    {
      "constant": true,
      "inputs": [
        {
          "name": "symbolName",
          "type": "string"
        }
      ],
      "name": "getBalance",
      "outputs": [
        {
          "name": "",
          "type": "uint256"
        }
      ],
      "payable": false,
      "stateMutability": "view",
      "type": "function"
    },
    {
      "constant": true,
      "inputs": [
        {
          "name": "symbolName",
          "type": "string"
        }
      ],
      "name": "getBuyOrderBook",
      "outputs": [
        {
          "name": "",
          "type": "uint256[]"
        },
        {
          "name": "",
          "type": "uint256[]"
        }
      ],
      "payable": false,
      "stateMutability": "view",
      "type": "function"
    },
    {
      "constant": true,
      "inputs": [
        {
          "name": "symbolName",
          "type": "string"
        }
      ],
      "name": "getSellOrderBook",
      "outputs": [
        {
          "name": "",
          "type": "uint256[]"
        },
        {
          "name": "",
          "type": "uint256[]"
        }
      ],
      "payable": false,
      "stateMutability": "view",
      "type": "function"
    },
    {
      "constant": false,
      "inputs": [
        {
          "name": "symbolName",
          "type": "string"
        },
        {
          "name": "priceInWei",
          "type": "uint256"
        },
        {
          "name": "amount",
          "type": "uint256"
        }
      ],
      "name": "buyToken",
      "outputs": [],
      "payable": false,
      "stateMutability": "nonpayable",
      "type": "function"
    },
    {
      "constant": false,
      "inputs": [
        {
          "name": "symbolIndex",
          "type": "uint8"
        },
        {
          "name": "priceInWei",
          "type": "uint256"
        },
        {
          "name": "amount",
          "type": "uint256"
        },
        {
          "name": "who",
          "type": "address"
        }
      ],
      "name": "addBuyOffer",
      "outputs": [],
      "payable": false,
      "stateMutability": "nonpayable",
      "type": "function"
    },
    {
      "constant": false,
      "inputs": [
        {
          "name": "symbolName",
          "type": "string"
        },
        {
          "name": "priceInWei",
          "type": "uint256"
        },
        {
          "name": "amount",
          "type": "uint256"
        }
      ],
      "name": "sellToken",
      "outputs": [],
      "payable": false,
      "stateMutability": "nonpayable",
      "type": "function"
    },
    {
      "constant": false,
      "inputs": [
        {
          "name": "symbolIndex",
          "type": "uint8"
        },
        {
          "name": "priceInWei",
          "type": "uint256"
        },
        {
          "name": "amount",
          "type": "uint256"
        },
        {
          "name": "who",
          "type": "address"
        }
      ],
      "name": "addSellOffer",
      "outputs": [],
      "payable": false,
      "stateMutability": "nonpayable",
      "type": "function"
    },
    {
      "constant": false,
      "inputs": [
        {
          "name": "symbolName",
          "type": "string"
        },
        {
          "name": "isSellOrder",
          "type": "bool"
        },
        {
          "name": "priceInWei",
          "type": "uint256"
        },
        {
          "name": "offerKey",
          "type": "uint256"
        }
      ],
      "name": "cancelOrder",
      "outputs": [],
      "payable": false,
      "stateMutability": "nonpayable",
      "type": "function"
    }
  ],
  "bytecode": "0x6080604052336000806101000a81548173ffffffffffffffffffffffffffffffffffffffff021916908373ffffffffffffffffffffffffffffffffffffffff160217905550614e8f806100536000396000f300608060405260043610610112576000357c0100000000000000000000000000000000000000000000000000000000900463ffffffff16806303bc4a27146101175780631a8eb72b1461021d57806333ad57e4146102485780633a51d246146102bb5780633bed33ce146103385780635ab8ea33146103655780636912fcf7146103e2578063728ff0291461044657806379ba50971461054c578063851030fe146105635780638da5cb5b146105e05780638ea0081814610637578063977377f8146106b857806398ea5fca1461073b578063b0b22c2c14610745578063c97a413a146107ce578063d1a3b02514610841578063d4ee1d90146108ca578063ebd354c014610921578063f2fde38b14610985575b600080fd5b34801561012357600080fd5b5061017e600480360381019080803590602001908201803590602001908080601f01602080910402602001604051908101604052809392919081815260200183838082843782019150505050505091929192905050506109c8565b604051808060200180602001838103835285818151815260200191508051906020019060200280838360005b838110156101c55780820151818401526020810190506101aa565b50505050905001838103825284818151815260200191508051906020019060200280838360005b838110156102075780820151818401526020810190506101ec565b5050505090500194505050505060405180910390f35b34801561022957600080fd5b50610232610c57565b6040518082815260200191505060405180910390f35b34801561025457600080fd5b506102b9600480360381019080803590602001908201803590602001908080601f016020809104026020016040519081016040528093929190818152602001838380828437820191505050505050919291929080359060200190929190505050610c9e565b005b3480156102c757600080fd5b50610322600480360381019080803590602001908201803590602001908080601f0160208091040260200160405190810160405280939291908181526020018383808284378201915050505050509192919290505050611008565b6040518082815260200191505060405180910390f35b34801561034457600080fd5b5061036360048036038101908080359060200190929190505050611070565b005b34801561037157600080fd5b506103e0600480360381019080803590602001908201803590602001908080601f016020809104026020016040519081016040528093929190818152602001838380828437820191505050505050919291929080359060200190929190803590602001909291905050506111f6565b005b3480156103ee57600080fd5b50610444600480360381019080803560ff1690602001909291908035906020019092919080359060200190929190803573ffffffffffffffffffffffffffffffffffffffff169060200190929190505050611dd0565b005b34801561045257600080fd5b506104ad600480360381019080803590602001908201803590602001908080601f016020809104026020016040519081016040528093929190818152602001838380828437820191505050505050919291929050505061259d565b604051808060200180602001838103835285818151815260200191508051906020019060200280838360005b838110156104f45780820151818401526020810190506104d9565b50505050905001838103825284818151815260200191508051906020019060200280838360005b8381101561053657808201518184015260208101905061051b565b5050505090500194505050505060405180910390f35b34801561055857600080fd5b5061056161282c565b005b34801561056f57600080fd5b506105de600480360381019080803590602001908201803590602001908080601f016020809104026020016040519081016040528093929190818152602001838380828437820191505050505050919291929080359060200190929190803590602001909291905050506129cb565b005b3480156105ec57600080fd5b506105f56136d5565b604051808273ffffffffffffffffffffffffffffffffffffffff1673ffffffffffffffffffffffffffffffffffffffff16815260200191505060405180910390f35b34801561064357600080fd5b5061069e600480360381019080803590602001908201803590602001908080601f01602080910402602001604051908101604052809392919081815260200183838082843782019150505050505091929192905050506136fa565b604051808215151515815260200191505060405180910390f35b3480156106c457600080fd5b5061071f600480360381019080803590602001908201803590602001908080601f0160208091040260200160405190810160405280939291908181526020018383808284378201915050505050509192919290505050613728565b604051808260ff1660ff16815260200191505060405180910390f35b610743613751565b005b34801561075157600080fd5b506107cc600480360381019080803590602001908201803590602001908080601f0160208091040260200160405190810160405280939291908181526020018383808284378201915050505050509192919290803573ffffffffffffffffffffffffffffffffffffffff169060200190929190505050613885565b005b3480156107da57600080fd5b5061083f600480360381019080803590602001908201803590602001908080601f016020809104026020016040519081016040528093929190818152602001838380828437820191505050505050919291929080359060200190929190505050613a93565b005b34801561084d57600080fd5b506108c8600480360381019080803590602001908201803590602001908080601f01602080910402602001604051908101604052809392919081815260200183838082843782019150505050505091929192908035151590602001909291908035906020019092919080359060200190929190505050613e31565b005b3480156108d657600080fd5b506108df614339565b604051808273ffffffffffffffffffffffffffffffffffffffff1673ffffffffffffffffffffffffffffffffffffffff16815260200191505060405180910390f35b34801561092d57600080fd5b50610983600480360381019080803560ff1690602001909291908035906020019092919080359060200190929190803573ffffffffffffffffffffffffffffffffffffffff16906020019092919050505061435f565b005b34801561099157600080fd5b506109c6600480360381019080803573ffffffffffffffffffffffffffffffffffffffff169060200190929190505050614b2c565b005b60608060006060806000806000806109df8a613728565b9650600260008860ff1660ff16815260200190815260200160002060060154604051908082528060200260200182016040528015610a2c5781602001602082028038833980820191505090505b509550600260008860ff1660ff16815260200190815260200160002060060154604051908082528060200260200182016040528015610a7a5781602001602082028038833980820191505090505b5094506000600260008960ff1660ff16815260200190815260200160002060060154111515610aae57858598509850610c4b565b60009350600260008860ff1660ff1681526020019081526020016000206005015492505b600260008860ff1660ff168152602001908152602001600020600401548311158015610aff575060008314155b15610c4457828685815181101515610b1357fe5b9060200190602002018181525050600260008860ff1660ff1681526020019081526020016000206002016000848152602001908152602001600020600301549150600090505b600260008860ff1660ff168152602001908152602001600020600201600084815260200190815260200160002060040154821015610be757600260008860ff1660ff1681526020019081526020016000206002016000848152602001908152602001600020600201600083815260200190815260200160002060010154810190508180600101925050610b59565b808585815181101515610bf657fe5b90602001906020020181815250508380600101945050600260008860ff1660ff1681526020019081526020016000206002016000848152602001908152602001600020600001549250610ad2565b8585985098505b50505050505050915091565b6000600560003373ffffffffffffffffffffffffffffffffffffffff1673ffffffffffffffffffffffffffffffffffffffff16815260200190815260200160002054905090565b600080610caa84613728565b9150600073ffffffffffffffffffffffffffffffffffffffff16600260008460ff1660ff16815260200190815260200160002060000160009054906101000a900473ffffffffffffffffffffffffffffffffffffffff1673ffffffffffffffffffffffffffffffffffffffff1614151515610d2457600080fd5b600260008360ff1660ff16815260200190815260200160002060000160009054906101000a900473ffffffffffffffffffffffffffffffffffffffff169050600115158173ffffffffffffffffffffffffffffffffffffffff166323b872dd3330876040518463ffffffff167c0100000000000000000000000000000000000000000000000000000000028152600401808473ffffffffffffffffffffffffffffffffffffffff1673ffffffffffffffffffffffffffffffffffffffff1681526020018373ffffffffffffffffffffffffffffffffffffffff1673ffffffffffffffffffffffffffffffffffffffff1681526020018281526020019350505050602060405180830381600087803b158015610e3e57600080fd5b505af1158015610e52573d6000803e3d6000fd5b505050506040513d6020811015610e6857600080fd5b81019080805190602001909291905050501515141515610e8757600080fd5b600460003373ffffffffffffffffffffffffffffffffffffffff1673ffffffffffffffffffffffffffffffffffffffff16815260200190815260200160002060008360ff1660ff1681526020019081526020016000205483600460003373ffffffffffffffffffffffffffffffffffffffff1673ffffffffffffffffffffffffffffffffffffffff16815260200190815260200160002060008560ff1660ff168152602001908152602001600020540110151515610f4457600080fd5b82600460003373ffffffffffffffffffffffffffffffffffffffff1673ffffffffffffffffffffffffffffffffffffffff16815260200190815260200160002060008460ff1660ff168152602001908152602001600020600082825401925050819055508160ff163373ffffffffffffffffffffffffffffffffffffffff167fc0aa5496c7b01c4b317a58e270b45f383bcd6ae57f9e5124db9c0674b77764998542604051808381526020018281526020019250505060405180910390a350505050565b6000600460003373ffffffffffffffffffffffffffffffffffffffff1673ffffffffffffffffffffffffffffffffffffffff168152602001908152602001600020600061105484613728565b60ff1660ff168152602001908152602001600020549050919050565b600081600560003373ffffffffffffffffffffffffffffffffffffffff1673ffffffffffffffffffffffffffffffffffffffff1681526020019081526020016000205403101515156110c157600080fd5b600560003373ffffffffffffffffffffffffffffffffffffffff1673ffffffffffffffffffffffffffffffffffffffff1681526020019081526020016000205481600560003373ffffffffffffffffffffffffffffffffffffffff1673ffffffffffffffffffffffffffffffffffffffff16815260200190815260200160002054031115151561115057600080fd5b80600560003373ffffffffffffffffffffffffffffffffffffffff1673ffffffffffffffffffffffffffffffffffffffff168152602001908152602001600020600082825403925050819055503373ffffffffffffffffffffffffffffffffffffffff167f8377eb20a0fd1317e336739cdd686f26b9815f02d38a3237f93ef04e1a80dc928242604051808381526020018281526020019250505060405180910390a250565b60008060008060008060008061120b8b613728565b97506000600260008a60ff1660ff168152602001908152602001600020600901541480611253575089600260008a60ff1660ff16815260200190815260200160002060070154115b1561137857888a02965086600560003373ffffffffffffffffffffffffffffffffffffffff1673ffffffffffffffffffffffffffffffffffffffff16815260200190815260200160002054101515156112ab57600080fd5b8987101515156112ba57600080fd5b8887101515156112c957600080fd5b600087600560003373ffffffffffffffffffffffffffffffffffffffff1673ffffffffffffffffffffffffffffffffffffffff16815260200190815260200160002054031015151561131a57600080fd5b86600560003373ffffffffffffffffffffffffffffffffffffffff1673ffffffffffffffffffffffffffffffffffffffff16815260200190815260200160002060008282540392505081905550611373888b8b33611dd0565b611dc3565b600260008960ff1660ff1681526020019081526020016000206007015495508894505b8986111580156113ab5750600085115b15611dad57600260008960ff1660ff16815260200190815260200160002060030160008781526020019081526020016000206003015493505b600260008960ff1660ff168152602001908152602001600020600301600087815260200190815260200160002060040154841080156114235750600085115b15611d8957600260008960ff1660ff16815260200190815260200160002060030160008781526020019081526020016000206002016000858152602001908152602001600020600101549250828510151561181a57828602915081600560003373ffffffffffffffffffffffffffffffffffffffff1673ffffffffffffffffffffffffffffffffffffffff16815260200190815260200160002054101515156114cb57600080fd5b81600560003373ffffffffffffffffffffffffffffffffffffffff1673ffffffffffffffffffffffffffffffffffffffff16815260200190815260200160002060008282540392505081905550600460003373ffffffffffffffffffffffffffffffffffffffff1673ffffffffffffffffffffffffffffffffffffffff16815260200190815260200160002060008960ff1660ff1681526020019081526020016000205483600460003373ffffffffffffffffffffffffffffffffffffffff1673ffffffffffffffffffffffffffffffffffffffff16815260200190815260200160002060008b60ff1660ff1681526020019081526020016000205401101515156115d557600080fd5b600260008960ff1660ff1681526020019081526020016000206003016000878152602001908152602001600020600201600085815260200190815260200160002060000160009054906101000a900473ffffffffffffffffffffffffffffffffffffffff169050600560008273ffffffffffffffffffffffffffffffffffffffff1673ffffffffffffffffffffffffffffffffffffffff1681526020019081526020016000205482600560008473ffffffffffffffffffffffffffffffffffffffff1673ffffffffffffffffffffffffffffffffffffffff16815260200190815260200160002054011115156116ca57600080fd5b6000600260008a60ff1660ff168152602001908152602001600020600301600088815260200190815260200160002060020160008681526020019081526020016000206001018190555081600560008373ffffffffffffffffffffffffffffffffffffffff1673ffffffffffffffffffffffffffffffffffffffff1681526020019081526020016000206000828254019250508190555082600460003373ffffffffffffffffffffffffffffffffffffffff1673ffffffffffffffffffffffffffffffffffffffff16815260200190815260200160002060008a60ff1660ff168152602001908152602001600020600082825401925050819055508760ff167f2779ea6dd005243d83747345c715a92b3c58485538dcd17a3919a57216f192d484888760405180848152602001838152602001828152602001935050505060405180910390a28285039450611bbf565b848602915081600560003373ffffffffffffffffffffffffffffffffffffffff1673ffffffffffffffffffffffffffffffffffffffff168152602001908152602001600020541015151561186d57600080fd5b81600560003373ffffffffffffffffffffffffffffffffffffffff1673ffffffffffffffffffffffffffffffffffffffff16815260200190815260200160002060008282540392505081905550600460003373ffffffffffffffffffffffffffffffffffffffff1673ffffffffffffffffffffffffffffffffffffffff16815260200190815260200160002060008960ff1660ff1681526020019081526020016000205485600460003373ffffffffffffffffffffffffffffffffffffffff1673ffffffffffffffffffffffffffffffffffffffff16815260200190815260200160002060008b60ff1660ff16815260200190815260200160002054011015151561197757600080fd5b600260008960ff1660ff1681526020019081526020016000206003016000878152602001908152602001600020600201600085815260200190815260200160002060000160009054906101000a900473ffffffffffffffffffffffffffffffffffffffff169050600560008273ffffffffffffffffffffffffffffffffffffffff1673ffffffffffffffffffffffffffffffffffffffff1681526020019081526020016000205482600560008473ffffffffffffffffffffffffffffffffffffffff1673ffffffffffffffffffffffffffffffffffffffff1681526020019081526020016000205401111515611a6c57600080fd5b84600260008a60ff1660ff168152602001908152602001600020600301600088815260200190815260200160002060020160008681526020019081526020016000206001016000828254039250508190555081600560008373ffffffffffffffffffffffffffffffffffffffff1673ffffffffffffffffffffffffffffffffffffffff1681526020019081526020016000206000828254019250508190555084600460003373ffffffffffffffffffffffffffffffffffffffff1673ffffffffffffffffffffffffffffffffffffffff16815260200190815260200160002060008a60ff1660ff168152602001908152602001600020600082825401925050819055508760ff167f2779ea6dd005243d83747345c715a92b3c58485538dcd17a3919a57216f192d486888760405180848152602001838152602001828152602001935050505060405180910390a2600094505b6001600260008a60ff1660ff1681526020019081526020016000206003016000888152602001908152602001600020600401540384148015611c4557506000600260008a60ff1660ff1681526020019081526020016000206003016000888152602001908152602001600020600201600086815260200190815260200160002060010154145b15611d7c57600260008960ff1660ff16815260200190815260200160002060090160008154809291906001900391905055506000600260008a60ff1660ff1681526020019081526020016000206003016000888152602001908152602001600020600001541415611cd7576000600260008a60ff1660ff16815260200190815260200160002060070181905550611d7b565b600260008960ff1660ff168152602001908152602001600020600301600087815260200190815260200160002060000154600260008a60ff1660ff168152602001908152602001600020600701819055506000600260008a60ff1660ff1681526020019081526020016000206003016000600260008c60ff1660ff168152602001908152602001600020600401548152602001908152602001600020600101819055505b5b83806001019450506113e4565b600260008960ff1660ff16815260200190815260200160002060070154955061139b565b6000851115611dc257611dc18b8b876111f6565b5b5b5050505050505050505050565b600080600260008760ff1660ff168152602001908152602001600020600201600086815260200190815260200160002060040154600260008860ff1660ff16815260200190815260200160002060020160008781526020019081526020016000206003018190555060408051908101604052808473ffffffffffffffffffffffffffffffffffffffff16815260200185815250600260008860ff1660ff16815260200190815260200160002060020160008781526020019081526020016000206002016000600260008a60ff1660ff168152602001908152602001600020600201600089815260200190815260200160002060030154815260200190815260200160002060008201518160000160006101000a81548173ffffffffffffffffffffffffffffffffffffffff021916908373ffffffffffffffffffffffffffffffffffffffff16021790555060208201518160010155905050600260008760ff1660ff1681526020019081526020016000206002016000868152602001908152602001600020600401600081548092919060010191905055506001600260008860ff1660ff168152602001908152602001600020600201600087815260200190815260200160002060040154141561250057600260008760ff1660ff168152602001908152602001600020600601600081548092919060010191905055506000600260008860ff1660ff1681526020019081526020016000206005015414801561201557506000600260008860ff1660ff16815260200190815260200160002060040154145b156120cd576000600260008860ff1660ff1681526020019081526020016000206002016000878152602001908152602001600020600001819055506000600260008860ff1660ff16815260200190815260200160002060020160008781526020019081526020016000206001018190555084600260008860ff1660ff1681526020019081526020016000206004018190555084600260008860ff1660ff168152602001908152602001600020600501819055506124ff565b600260008760ff1660ff168152602001908152602001600020600501548510156121ef57600260008760ff1660ff16815260200190815260200160002060050154600260008860ff1660ff1681526020019081526020016000206002016000878152602001908152602001600020600001819055506000600260008860ff1660ff16815260200190815260200160002060020160008781526020019081526020016000206001018190555084600260008860ff1660ff1681526020019081526020016000206002016000600260008a60ff1660ff1681526020019081526020016000206005015481526020019081526020016000206001018190555084600260008860ff1660ff168152602001908152602001600020600501819055506124fe565b600260008760ff1660ff1681526020019081526020016000206004015485111561231157600260008760ff1660ff16815260200190815260200160002060040154600260008860ff1660ff1681526020019081526020016000206002016000878152602001908152602001600020600101819055506000600260008860ff1660ff16815260200190815260200160002060020160008781526020019081526020016000206000018190555084600260008860ff1660ff1681526020019081526020016000206002016000600260008a60ff1660ff1681526020019081526020016000206004015481526020019081526020016000206000018190555084600260008860ff1660ff168152602001908152602001600020600401819055506124fd565b600260008760ff1660ff168152602001908152602001600020600401549150600090505b600082118015612343575080155b156124fc578482108015612386575084600260008860ff1660ff168152602001908152602001600020600201600084815260200190815260200160002060000154115b156124c457600260008760ff1660ff168152602001908152602001600020600201600083815260200190815260200160002060000154600260008860ff1660ff16815260200190815260200160002060020160008781526020019081526020016000206000018190555081600260008860ff1660ff16815260200190815260200160002060020160008781526020019081526020016000206001018190555084600260008860ff1660ff1681526020019081526020016000206002016000600260008a60ff1660ff16815260200190815260200160002060020160008681526020019081526020016000206000015481526020019081526020016000206001018190555084600260008860ff1660ff168152602001908152602001600020600201600084815260200190815260200160002060000181905550600190505b600260008760ff1660ff1681526020019081526020016000206002016000838152602001908152602001600020600101549150612335565b5b5b5b5b3373ffffffffffffffffffffffffffffffffffffffff168660ff167f2ef51fa215957689865f55575d7d89840bee8fce54b23ef826fea1a304acdd3f86886001600260008d60ff1660ff16815260200190815260200160002060020160008c8152602001908152602001600020600401540360405180848152602001838152602001828152602001935050505060405180910390a3505050505050565b60608060006060806000806000806125b48a613728565b9650600260008860ff1660ff168152602001908152602001600020600901546040519080825280602002602001820160405280156126015781602001602082028038833980820191505090505b509550600260008860ff1660ff1681526020019081526020016000206009015460405190808252806020026020018201604052801561264f5781602001602082028038833980820191505090505b5094506000600260008960ff1660ff1681526020019081526020016000206009015411151561268357858598509850612820565b60009350600260008860ff1660ff1681526020019081526020016000206007015492505b600260008860ff1660ff1681526020019081526020016000206008015483111580156126d4575060008314155b15612819578286858151811015156126e857fe5b9060200190602002018181525050600260008860ff1660ff1681526020019081526020016000206003016000848152602001908152602001600020600301549150600090505b600260008860ff1660ff1681526020019081526020016000206003016000848152602001908152602001600020600401548210156127bc57600260008860ff1660ff168152602001908152602001600020600301600084815260200190815260200160002060020160008381526020019081526020016000206001015481019050818060010192505061272e565b8085858151811015156127cb57fe5b90602001906020020181815250508380600101945050600260008860ff1660ff16815260200190815260200160002060030160008481526020019081526020016000206000015492506126a7565b8585985098505b50505050505050915091565b600160009054906101000a900473ffffffffffffffffffffffffffffffffffffffff1673ffffffffffffffffffffffffffffffffffffffff163373ffffffffffffffffffffffffffffffffffffffff1614151561288857600080fd5b600160009054906101000a900473ffffffffffffffffffffffffffffffffffffffff1673ffffffffffffffffffffffffffffffffffffffff166000809054906101000a900473ffffffffffffffffffffffffffffffffffffffff1673ffffffffffffffffffffffffffffffffffffffff167f8be0079c531659141344cd1fd0a4f28419497f9722a3daafe3b4186f6b6457e060405160405180910390a3600160009054906101000a900473ffffffffffffffffffffffffffffffffffffffff166000806101000a81548173ffffffffffffffffffffffffffffffffffffffff021916908373ffffffffffffffffffffffffffffffffffffffff1602179055506000600160006101000a81548173ffffffffffffffffffffffffffffffffffffffff021916908373ffffffffffffffffffffffffffffffffffffffff160217905550565b6000806000806000806000806129e08b613728565b97506000600260008a60ff1660ff168152602001908152602001600020600601541480612a28575089600260008a60ff1660ff16815260200190815260200160002060040154105b15612c2157888a02965088600460003373ffffffffffffffffffffffffffffffffffffffff1673ffffffffffffffffffffffffffffffffffffffff16815260200190815260200160002060008a60ff1660ff1681526020019081526020016000205410151515612a9757600080fd5b600089600460003373ffffffffffffffffffffffffffffffffffffffff1673ffffffffffffffffffffffffffffffffffffffff16815260200190815260200160002060008b60ff1660ff168152602001908152602001600020540310151515612aff57600080fd5b898710151515612b0e57600080fd5b888710151515612b1d57600080fd5b600560003373ffffffffffffffffffffffffffffffffffffffff1673ffffffffffffffffffffffffffffffffffffffff1681526020019081526020016000205487600560003373ffffffffffffffffffffffffffffffffffffffff1673ffffffffffffffffffffffffffffffffffffffff168152602001908152602001600020540110151515612bac57600080fd5b88600460003373ffffffffffffffffffffffffffffffffffffffff1673ffffffffffffffffffffffffffffffffffffffff16815260200190815260200160002060008a60ff1660ff16815260200190815260200160002060008282540392505081905550612c1c888b8b3361435f565b6136c8565b600260008960ff1660ff1681526020019081526020016000206004015495508894505b898610158015612c545750600085115b156136b257600260008960ff1660ff16815260200190815260200160002060020160008781526020019081526020016000206003015493505b600260008960ff1660ff16815260200190815260200160002060020160008781526020019081526020016000206004015484108015612ccc5750600085115b1561368e57600260008960ff1660ff1681526020019081526020016000206002016000878152602001908152602001600020600201600085815260200190815260200160002060010154925082851015156130f157828602915082600460003373ffffffffffffffffffffffffffffffffffffffff1673ffffffffffffffffffffffffffffffffffffffff16815260200190815260200160002060008a60ff1660ff1681526020019081526020016000205410151515612d8b57600080fd5b82600460003373ffffffffffffffffffffffffffffffffffffffff1673ffffffffffffffffffffffffffffffffffffffff16815260200190815260200160002060008a60ff1660ff16815260200190815260200160002060008282540392505081905550600560003373ffffffffffffffffffffffffffffffffffffffff1673ffffffffffffffffffffffffffffffffffffffff1681526020019081526020016000205482600560003373ffffffffffffffffffffffffffffffffffffffff1673ffffffffffffffffffffffffffffffffffffffff168152602001908152602001600020540110151515612e7e57600080fd5b600260008960ff1660ff1681526020019081526020016000206002016000878152602001908152602001600020600201600085815260200190815260200160002060000160009054906101000a900473ffffffffffffffffffffffffffffffffffffffff169050600460008273ffffffffffffffffffffffffffffffffffffffff1673ffffffffffffffffffffffffffffffffffffffff16815260200190815260200160002060008960ff1660ff1681526020019081526020016000205483600460008473ffffffffffffffffffffffffffffffffffffffff1673ffffffffffffffffffffffffffffffffffffffff16815260200190815260200160002060008b60ff1660ff1681526020019081526020016000205401111515612fa157600080fd5b6000600260008a60ff1660ff168152602001908152602001600020600201600088815260200190815260200160002060020160008681526020019081526020016000206001018190555081600560003373ffffffffffffffffffffffffffffffffffffffff1673ffffffffffffffffffffffffffffffffffffffff1681526020019081526020016000206000828254019250508190555082600460008373ffffffffffffffffffffffffffffffffffffffff1673ffffffffffffffffffffffffffffffffffffffff16815260200190815260200160002060008a60ff1660ff168152602001908152602001600020600082825401925050819055508760ff167fcbfa5edcd918ef1ec42746c71ac83c456f37330c83a22e44d6cfdca22d56471084888760405180848152602001838152602001828152602001935050505060405180910390a282850394506134c4565b848602915084600460003373ffffffffffffffffffffffffffffffffffffffff1673ffffffffffffffffffffffffffffffffffffffff16815260200190815260200160002060008a60ff1660ff168152602001908152602001600020541015151561315b57600080fd5b84600460003373ffffffffffffffffffffffffffffffffffffffff1673ffffffffffffffffffffffffffffffffffffffff16815260200190815260200160002060008a60ff1660ff16815260200190815260200160002060008282540392505081905550600560003373ffffffffffffffffffffffffffffffffffffffff1673ffffffffffffffffffffffffffffffffffffffff1681526020019081526020016000205482600560003373ffffffffffffffffffffffffffffffffffffffff1673ffffffffffffffffffffffffffffffffffffffff16815260200190815260200160002054011015151561324e57600080fd5b600260008960ff1660ff1681526020019081526020016000206002016000878152602001908152602001600020600201600085815260200190815260200160002060000160009054906101000a900473ffffffffffffffffffffffffffffffffffffffff169050600460008273ffffffffffffffffffffffffffffffffffffffff1673ffffffffffffffffffffffffffffffffffffffff16815260200190815260200160002060008960ff1660ff1681526020019081526020016000205483600460008473ffffffffffffffffffffffffffffffffffffffff1673ffffffffffffffffffffffffffffffffffffffff16815260200190815260200160002060008b60ff1660ff168152602001908152602001600020540111151561337157600080fd5b84600260008a60ff1660ff168152602001908152602001600020600201600088815260200190815260200160002060020160008681526020019081526020016000206001016000828254039250508190555081600560003373ffffffffffffffffffffffffffffffffffffffff1673ffffffffffffffffffffffffffffffffffffffff1681526020019081526020016000206000828254019250508190555084600460008373ffffffffffffffffffffffffffffffffffffffff1673ffffffffffffffffffffffffffffffffffffffff16815260200190815260200160002060008a60ff1660ff168152602001908152602001600020600082825401925050819055508760ff167fcbfa5edcd918ef1ec42746c71ac83c456f37330c83a22e44d6cfdca22d56471086888760405180848152602001838152602001828152602001935050505060405180910390a2600094505b6001600260008a60ff1660ff168152602001908152602001600020600201600088815260200190815260200160002060040154038414801561354a57506000600260008a60ff1660ff1681526020019081526020016000206002016000888152602001908152602001600020600201600086815260200190815260200160002060010154145b1561368157600260008960ff1660ff16815260200190815260200160002060060160008154809291906001900391905055506000600260008a60ff1660ff16815260200190815260200160002060020160008881526020019081526020016000206001015414156135dc576000600260008a60ff1660ff16815260200190815260200160002060040181905550613680565b600260008960ff1660ff168152602001908152602001600020600201600087815260200190815260200160002060010154600260008a60ff1660ff168152602001908152602001600020600401819055506000600260008a60ff1660ff1681526020019081526020016000206002016000600260008c60ff1660ff168152602001908152602001600020600401548152602001908152602001600020600001819055505b5b8380600101945050612c8d565b600260008960ff1660ff168152602001908152602001600020600401549550612c44565b60008511156136c7576136c68b8b876129cb565b5b5b5050505050505050505050565b6000809054906101000a900473ffffffffffffffffffffffffffffffffffffffff1681565b60008061370683614bcb565b905060008160ff16141561371d5760009150613722565b600191505b50919050565b60008061373483614bcb565b905060008160ff1611151561374857600080fd5b80915050919050565b600560003373ffffffffffffffffffffffffffffffffffffffff1673ffffffffffffffffffffffffffffffffffffffff1681526020019081526020016000205434600560003373ffffffffffffffffffffffffffffffffffffffff1673ffffffffffffffffffffffffffffffffffffffff1681526020019081526020016000205401101515156137e057600080fd5b34600560003373ffffffffffffffffffffffffffffffffffffffff1673ffffffffffffffffffffffffffffffffffffffff168152602001908152602001600020600082825401925050819055503373ffffffffffffffffffffffffffffffffffffffff167f42dbebeb8f6fb795e3007753aef2d4b1a292dd123f6de06a41050186741506373442604051808381526020018281526020019250505060405180910390a2565b6000809054906101000a900473ffffffffffffffffffffffffffffffffffffffff1673ffffffffffffffffffffffffffffffffffffffff163373ffffffffffffffffffffffffffffffffffffffff161415156138e057600080fd5b6138e9826136fa565b1515156138f557600080fd5b6003600081819054906101000a900460ff168092919060010191906101000a81548160ff021916908360ff160217905550508160026000600360009054906101000a900460ff1660ff1660ff1681526020019081526020016000206001019080519060200190613966929190614dbe565b508060026000600360009054906101000a900460ff1660ff1660ff16815260200190815260200160002060000160006101000a81548173ffffffffffffffffffffffffffffffffffffffff021916908373ffffffffffffffffffffffffffffffffffffffff1602179055507f6c71eb76d5d82031f490d3e44dc01d298444e569078199b14510435d81b59ff7600360009054906101000a900460ff168342604051808460ff16815260200180602001838152602001828103825284818151815260200191508051906020019080838360005b83811015613a53578082015181840152602081019050613a38565b50505050905090810190601f168015613a805780820380516001836020036101000a031916815260200191505b5094505050505060405180910390a15050565b600080613a9f84613728565b9150600073ffffffffffffffffffffffffffffffffffffffff16600260008460ff1660ff16815260200190815260200160002060000160009054906101000a900473ffffffffffffffffffffffffffffffffffffffff1673ffffffffffffffffffffffffffffffffffffffff1614151515613b1957600080fd5b600260008360ff1660ff16815260200190815260200160002060000160009054906101000a900473ffffffffffffffffffffffffffffffffffffffff169050600083600460003373ffffffffffffffffffffffffffffffffffffffff1673ffffffffffffffffffffffffffffffffffffffff16815260200190815260200160002060008560ff1660ff168152602001908152602001600020540310151515613bc057600080fd5b600460003373ffffffffffffffffffffffffffffffffffffffff1673ffffffffffffffffffffffffffffffffffffffff16815260200190815260200160002060008360ff1660ff1681526020019081526020016000205483600460003373ffffffffffffffffffffffffffffffffffffffff1673ffffffffffffffffffffffffffffffffffffffff16815260200190815260200160002060008560ff1660ff168152602001908152602001600020540311151515613c7d57600080fd5b82600460003373ffffffffffffffffffffffffffffffffffffffff1673ffffffffffffffffffffffffffffffffffffffff16815260200190815260200160002060008460ff1660ff16815260200190815260200160002060008282540392505081905550600115158173ffffffffffffffffffffffffffffffffffffffff1663a9059cbb33866040518363ffffffff167c0100000000000000000000000000000000000000000000000000000000028152600401808373ffffffffffffffffffffffffffffffffffffffff1673ffffffffffffffffffffffffffffffffffffffff16815260200182815260200192505050602060405180830381600087803b158015613d8857600080fd5b505af1158015613d9c573d6000803e3d6000fd5b505050506040513d6020811015613db257600080fd5b81019080805190602001909291905050501515141515613dd157600080fd5b8160ff163373ffffffffffffffffffffffffffffffffffffffff167fdb4ff4f8cf622448922cef4a556465452c3ff71b47f50f87542f6f18b6564a8f8542604051808381526020018281526020019250505060405180910390a350505050565b6000806000613e3f87613728565b925085156140df573373ffffffffffffffffffffffffffffffffffffffff16600260008560ff1660ff1681526020019081526020016000206003016000878152602001908152602001600020600201600086815260200190815260200160002060000160009054906101000a900473ffffffffffffffffffffffffffffffffffffffff1673ffffffffffffffffffffffffffffffffffffffff16141515613ee557600080fd5b600260008460ff1660ff16815260200190815260200160002060030160008681526020019081526020016000206002016000858152602001908152602001600020600101549150600460003373ffffffffffffffffffffffffffffffffffffffff1673ffffffffffffffffffffffffffffffffffffffff16815260200190815260200160002060008460ff1660ff1681526020019081526020016000205482600460003373ffffffffffffffffffffffffffffffffffffffff1673ffffffffffffffffffffffffffffffffffffffff16815260200190815260200160002060008660ff1660ff168152602001908152602001600020540110151515613fe957600080fd5b81600460003373ffffffffffffffffffffffffffffffffffffffff1673ffffffffffffffffffffffffffffffffffffffff16815260200190815260200160002060008560ff1660ff168152602001908152602001600020600082825401925050819055506000600260008560ff1660ff16815260200190815260200160002060030160008781526020019081526020016000206002016000868152602001908152602001600020600101819055508260ff167fffac5f4941e92bc6814610a825eeff0ae9bb4a17d47c0e2353c6889b2b550fb88686604051808381526020018281526020019250505060405180910390a2614330565b3373ffffffffffffffffffffffffffffffffffffffff16600260008560ff1660ff1681526020019081526020016000206002016000878152602001908152602001600020600201600086815260200190815260200160002060000160009054906101000a900473ffffffffffffffffffffffffffffffffffffffff1673ffffffffffffffffffffffffffffffffffffffff1614151561417d57600080fd5b84600260008560ff1660ff1681526020019081526020016000206002016000878152602001908152602001600020600201600086815260200190815260200160002060010154029050600560003373ffffffffffffffffffffffffffffffffffffffff1673ffffffffffffffffffffffffffffffffffffffff1681526020019081526020016000205481600560003373ffffffffffffffffffffffffffffffffffffffff1673ffffffffffffffffffffffffffffffffffffffff16815260200190815260200160002054011015151561425557600080fd5b80600560003373ffffffffffffffffffffffffffffffffffffffff1673ffffffffffffffffffffffffffffffffffffffff168152602001908152602001600020600082825401925050819055506000600260008560ff1660ff16815260200190815260200160002060020160008781526020019081526020016000206002016000868152602001908152602001600020600101819055508260ff167f5f2fdca15d8ab2ad3f590066add3054471b3603ca44a66f12e124e9c97ec19558686604051808381526020018281526020019250505060405180910390a25b50505050505050565b600160009054906101000a900473ffffffffffffffffffffffffffffffffffffffff1681565b600080600260008760ff1660ff168152602001908152602001600020600301600086815260200190815260200160002060040154600260008860ff1660ff16815260200190815260200160002060030160008781526020019081526020016000206003018190555060408051908101604052808473ffffffffffffffffffffffffffffffffffffffff16815260200185815250600260008860ff1660ff16815260200190815260200160002060030160008781526020019081526020016000206002016000600260008a60ff1660ff168152602001908152602001600020600301600089815260200190815260200160002060030154815260200190815260200160002060008201518160000160006101000a81548173ffffffffffffffffffffffffffffffffffffffff021916908373ffffffffffffffffffffffffffffffffffffffff16021790555060208201518160010155905050600260008760ff1660ff1681526020019081526020016000206003016000868152602001908152602001600020600401600081548092919060010191905055506001600260008860ff1660ff1681526020019081526020016000206003016000878152602001908152602001600020600401541415614a8f57600260008760ff1660ff168152602001908152602001600020600901600081548092919060010191905055506000600260008860ff1660ff168152602001908152602001600020600801541480156145a457506000600260008860ff1660ff16815260200190815260200160002060070154145b1561465c576000600260008860ff1660ff1681526020019081526020016000206003016000878152602001908152602001600020600001819055506000600260008860ff1660ff16815260200190815260200160002060030160008781526020019081526020016000206001018190555084600260008860ff1660ff1681526020019081526020016000206007018190555084600260008860ff1660ff16815260200190815260200160002060080181905550614a8e565b600260008760ff1660ff1681526020019081526020016000206008015485111561477e576000600260008860ff1660ff168152602001908152602001600020600301600087815260200190815260200160002060000181905550600260008760ff1660ff16815260200190815260200160002060080154600260008860ff1660ff16815260200190815260200160002060030160008781526020019081526020016000206001018190555084600260008860ff1660ff1681526020019081526020016000206003016000600260008a60ff1660ff1681526020019081526020016000206008015481526020019081526020016000206000018190555084600260008860ff1660ff16815260200190815260200160002060080181905550614a8d565b600260008760ff1660ff168152602001908152602001600020600701548511156148a0576000600260008860ff1660ff168152602001908152602001600020600301600087815260200190815260200160002060010181905550600260008760ff1660ff16815260200190815260200160002060070154600260008860ff1660ff16815260200190815260200160002060030160008781526020019081526020016000206000018190555084600260008860ff1660ff1681526020019081526020016000206003016000600260008a60ff1660ff1681526020019081526020016000206007015481526020019081526020016000206001018190555084600260008860ff1660ff16815260200190815260200160002060070181905550614a8c565b600260008760ff1660ff168152602001908152602001600020600701549150600090505b6000821180156148d2575080155b15614a8b578482108015614915575084600260008860ff1660ff168152602001908152602001600020600301600084815260200190815260200160002060000154115b15614a5357600260008760ff1660ff168152602001908152602001600020600301600083815260200190815260200160002060000154600260008860ff1660ff16815260200190815260200160002060030160008781526020019081526020016000206000018190555081600260008860ff1660ff16815260200190815260200160002060030160008781526020019081526020016000206001018190555084600260008860ff1660ff1681526020019081526020016000206003016000600260008a60ff1660ff16815260200190815260200160002060030160008681526020019081526020016000206000015481526020019081526020016000206001018190555084600260008860ff1660ff168152602001908152602001600020600301600084815260200190815260200160002060000181905550600190505b600260008760ff1660ff16815260200190815260200160002060030160008381526020019081526020016000206000015491506148c4565b5b5b5b5b8273ffffffffffffffffffffffffffffffffffffffff168660ff167fc7d136f10bcb424de2ff60d5473d863ed2fdcd5d352e045d89ee9581f54f6afb86886001600260008d60ff1660ff16815260200190815260200160002060030160008c8152602001908152602001600020600401540360405180848152602001838152602001828152602001935050505060405180910390a3505050505050565b6000809054906101000a900473ffffffffffffffffffffffffffffffffffffffff1673ffffffffffffffffffffffffffffffffffffffff163373ffffffffffffffffffffffffffffffffffffffff16141515614b8757600080fd5b80600160006101000a81548173ffffffffffffffffffffffffffffffffffffffff021916908373ffffffffffffffffffffffffffffffffffffffff16021790555050565b600080600190505b600360009054906101000a900460ff1660ff168160ff16111515614c3057614c16600260008360ff1660ff16815260200190815260200160002060010184614c3b565b15614c2357809150614c35565b8080600101915050614bd3565b600091505b50919050565b60008060606000859250849150815183805460018160011615610100020316600290049050141515614c705760009350614db5565b600090505b82805460018160011615610100020316600290049050811015614db0578181815181101515614ca057fe5b9060200101517f010000000000000000000000000000000000000000000000000000000000000090047f0100000000000000000000000000000000000000000000000000000000000000027effffffffffffffffffffffffffffffffffffffffffffffffffffffffffffff191683828154600181600116156101000203166002900481101515614d2c57fe5b815460011615614d4b5790600052602060002090602091828204019190065b9054901a7f0100000000000000000000000000000000000000000000000000000000000000027effffffffffffffffffffffffffffffffffffffffffffffffffffffffffffff1916141515614da35760009350614db5565b8080600101915050614c75565b600193505b50505092915050565b828054600181600116156101000203166002900490600052602060002090601f016020900481019282601f10614dff57805160ff1916838001178555614e2d565b82800160010185558215614e2d579182015b82811115614e2c578251825591602001919060010190614e11565b5b509050614e3a9190614e3e565b5090565b614e6091905b80821115614e5c576000816000905550600101614e44565b5090565b905600a165627a7a723058208fd4ecdcab6016bd91f5e07a4b8def01665741dfc039dbde0aae323af36dbe7e0029",
  "source": "pragma solidity ^0.4.13;\n\nimport \"./FixedSupplyToken.sol\";\n\ncontract Exchange is Owned {\n    //----------GENERAL STRUCTURE------------//\n\n    // One personal offer of buying or selling tokens\n    struct Offer{\n        address who;\n        uint amount;\n    }\n\n    /* OrderBook is just an entry in 'buyBook' or 'sellBook'. It stores all\n    Offers of the same price.\n    */\n    struct OrderBook {\n        uint higherPrice;\n        uint lowerPrice;\n\n        // offers_key => Offer, where offers_key works as an index. This mapping is just like an array.\n        mapping (uint => Offer) offers;\n\n        // The index of first unfulfilled offer of a certain price. The range of offers_key is [0, offers_length -1].\n        uint offers_key;\n        // 'offers_length' = # of nonFulfilledOffer\n        uint offers_length;\n    }\n\n    struct Token {\n        address tokenContract;\n        string symbolName;\n\n        // (price => OrderBook)\n        mapping (uint => OrderBook) buyBook;\n        mapping (uint => OrderBook) sellBook;\n\n        /* 'buyBook' and 'sellBook' are linked lists, so we need store pointers.\n        For 'buyBook', the highest price will be the current buy price;\n        for 'sellBook', the lowest price will be the current sell price.\n        */\n        uint curBuyPrice;\n        /* my own understanding: persons who want to buy at lower price than\n        current buy price have to wait, so they are placed on the buyBook. */\n        uint lowestBuyPrice;\n        // the amount of buyPrice is the lengthOfLinkedList -1. ?\n        uint amountBuyPrices;\n\n        uint curSellPrice;\n        uint highestSellPrice;\n        uint amountSellPrices;\n\n    }\n\n    // we support a max of 255 tokens\n    // 'tokens' maps index to Token\n    mapping (uint8 => Token) tokens;\n    // the index of latest added token. equals to #tokens\n    uint8 symbolNameIndex;\n\n    //--------------BALANCE-----------------//\n    // 'tokenBalanceForAddress' is the mapping (address => (tokenIndex => balance))\n    mapping (address => mapping (uint8 => uint)) tokenBalanceForAddress;\n    // Ether balance\n    mapping (address => uint) balanceEthForAddress;\n\n    //--------------EVENTS-----------------//\n    // EVENTS for deposit/withdrawl\n    event DepositForTokenReceived(address indexed _from, uint indexed _symbolIndex, uint _amount, uint _timestamp);\n    event WithdrawlToken(address indexed _to, uint indexed _symbolIndex, uint _amount, uint _timestamp);\n    event DepositForEthReceived(address indexed _from, uint _amount, uint _timestamp);\n    event WithdrawlEth(address indexed _to, uint _amount, uint _timestamp);\n\n    //EVENTS for orders\n    event LimitSellOrderCreated(uint indexed _symbolIndex, address indexed _who, uint _amountTokens, uint _priceInWei, uint _orderKey);\n    event SellOrderFulfilled(uint indexed _symbolIndex, uint _amount, uint _priceInWei, uint _orderKey);\n    event SellOrderCanceled(uint indexed _symbolIndex, uint _priceInWei, uint _orderKey);\n    event LimitBuyOrderCreated(uint indexed _symbolIndex, address indexed _who, uint _amountTokens, uint _priceInWei, uint _orderKey);\n    event BuyOrderFulfilled(uint indexed _symbolIndex, uint _amount, uint _priceInWei, uint _orderKey);\n    event BuyOrderCanceled(uint indexed _symbolIndex, uint _priceInWei, uint _orderKey);\n\n    //EVENTS for management\n    event TokenAddedToSystem(uint _symbolIndex, string _token, uint _timestamp);\n\n    //----------DEPOSIT AND WITHDRAWAL ETHER-----------//\n    function depositEther() payable public {\n        // check if the amount overflows the range of uint256(uint)\n        require(balanceEthForAddress[msg.sender] + msg.value >= balanceEthForAddress[msg.sender]);\n        balanceEthForAddress[msg.sender] += msg.value;\n        emit DepositForEthReceived(msg.sender, msg.value, now);\n    }\n\n    function withdrawEther (uint amountInWei) public {\n        // check underflow\n        require(balanceEthForAddress[msg.sender] - amountInWei >=0);\n        require(balanceEthForAddress[msg.sender] - amountInWei <= balanceEthForAddress[msg.sender]);\n        balanceEthForAddress[msg.sender] -= amountInWei;\n        emit WithdrawlEth(msg.sender, amountInWei, now);\n    }\n\n    function getEthBalanceInWei() public constant returns (uint) {\n        return balanceEthForAddress[msg.sender];\n    }\n\n    //------------TOKEN MANAGEMENT-----------//\n    function addToken(string symbolName, address erc20TokenAddress) onlyOwner public {\n        require(!hasToken(symbolName));\n        symbolNameIndex++;\n        tokens[symbolNameIndex].symbolName = symbolName;\n        tokens[symbolNameIndex].tokenContract = erc20TokenAddress;\n        emit TokenAddedToSystem(symbolNameIndex, symbolName, now);\n    }\n\n    function hasToken(string symbolName) constant returns (bool) {\n        uint8 index = getSymbolIndex(symbolName);\n        if (index==0) return false;\n        return true;\n    }\n\n    function getSymbolIndex (string symbolName) internal returns (uint8) {\n        for (uint8 i=1; i<= symbolNameIndex; i++) {\n            if (stringsEqual(tokens[i].symbolName, symbolName)){\n                return i;\n            }\n        }\n        return 0;\n    }\n\n    function getSymbolIndexOrThrow(string symbolName) returns (uint8) {\n        uint8 index = getSymbolIndex(symbolName);\n        require(index > 0);\n        return index;\n    }\n\n    // helper function---compare two strings\n    function stringsEqual (string storage _a, string memory _b) internal returns (bool) {\n        bytes storage a = bytes(_a);\n        bytes memory b = bytes(_b);\n        if (a.length != b.length) {\n            return false;\n        }\n        for (uint i=0; i<a.length; i++){\n            if(a[i] != b[i]) return false;\n        }\n        return true;\n    }\n\n    //-------------DEPOSIT AND WITHDRAWAL TOKEN------------//\n    function depositToken(string symbolName, uint amount) {\n        uint8 symbolIndex = getSymbolIndexOrThrow(symbolName);\n        require(tokens[symbolIndex].tokenContract != address(0));\n\n        ERC20Interface token = ERC20Interface(tokens[symbolIndex].tokenContract);\n\n        require(token.transferFrom(msg.sender, address(this), amount) == true);\n        require(tokenBalanceForAddress[msg.sender][symbolIndex] + amount >=\n        tokenBalanceForAddress[msg.sender][symbolIndex]);\n\n        tokenBalanceForAddress[msg.sender][symbolIndex] += amount;\n\n        emit DepositForTokenReceived(msg.sender, symbolIndex, amount, now);\n    }\n\n    function withdrawToken (string symbolName, uint amount) {\n        uint8 symbolIndex = getSymbolIndexOrThrow(symbolName);\n        require(tokens[symbolIndex].tokenContract != address(0));\n\n        ERC20Interface token = ERC20Interface(tokens[symbolIndex].tokenContract);\n\n        require(tokenBalanceForAddress[msg.sender][symbolIndex] - amount >= 0);\n        require(tokenBalanceForAddress[msg.sender][symbolIndex] - amount <=\n        tokenBalanceForAddress[msg.sender][symbolIndex]);\n\n        tokenBalanceForAddress[msg.sender][symbolIndex] -= amount;\n        require(token.transfer(msg.sender, amount) == true);\n        emit WithdrawlToken(msg.sender, symbolIndex, amount, now);\n    }\n\n    function getBalance(string symbolName) constant returns (uint) {\n        return tokenBalanceForAddress[msg.sender][getSymbolIndexOrThrow(symbolName)];\n    }\n\n    //-----------ORDERED BOOK - BID ORDERS---------//\n    // 'BuyOrderBook' consists of (price[], volume[])\n    function getBuyOrderBook (string symbolName) constant returns (uint[], uint[]) {\n        uint8 symbolIndex = getSymbolIndexOrThrow(symbolName);\n        uint[] memory arrPricesBuy = new uint[](tokens[symbolIndex].amountBuyPrices);\n        uint[] memory arrVolumeBuy = new uint[](tokens[symbolIndex].amountBuyPrices);\n\n        // No offers at all, so we return directly.\n        if (tokens[symbolIndex].amountBuyPrices <= 0) return (arrPricesBuy, arrVolumeBuy);\n\n        uint counter = 0; // the index of the two arrays to be returned\n        uint iteratePrice = tokens[symbolIndex].lowestBuyPrice;\n        while (iteratePrice <= tokens[symbolIndex].curBuyPrice && iteratePrice != 0){\n            arrPricesBuy[counter] = iteratePrice;\n            uint unfulfilledOrderIndex = tokens[symbolIndex].buyBook[iteratePrice].offers_key;\n            uint volume = 0;\n            while (unfulfilledOrderIndex < tokens[symbolIndex].buyBook[iteratePrice].offers_length){\n                volume += tokens[symbolIndex].buyBook[iteratePrice].offers[unfulfilledOrderIndex].amount;\n                unfulfilledOrderIndex++;\n            }\n            arrVolumeBuy[counter] = volume;\n            counter++;\n            iteratePrice = tokens[symbolIndex].buyBook[iteratePrice].higherPrice;\n        }\n\n        return (arrPricesBuy, arrVolumeBuy);\n\n    }\n\n\n    //-----------OREDERED BOOK - ASK ORDER----------//\n    function getSellOrderBook (string symbolName) constant returns (uint[], uint[]) {\n        uint8 symbolIndex = getSymbolIndexOrThrow(symbolName);\n        uint[] memory arrPricesSell = new uint[](tokens[symbolIndex].amountSellPrices);\n        uint[] memory arrVolumeSell = new uint[](tokens[symbolIndex].amountSellPrices);\n\n        // No offers at all, so we return directly.\n        if (tokens[symbolIndex].amountSellPrices <= 0) return (arrPricesSell, arrVolumeSell);\n\n        uint counter = 0; // the index of the two arrays to be returned\n        uint iteratePrice = tokens[symbolIndex].curSellPrice;\n        while (iteratePrice <= tokens[symbolIndex].highestSellPrice && iteratePrice != 0){\n            arrPricesSell[counter] = iteratePrice;\n            uint unfulfilledOrderIndex = tokens[symbolIndex].sellBook[iteratePrice].offers_key;\n            uint volume = 0;\n            while (unfulfilledOrderIndex < tokens[symbolIndex].sellBook[iteratePrice].offers_length){\n                volume += tokens[symbolIndex].sellBook[iteratePrice].offers[unfulfilledOrderIndex].amount;\n                unfulfilledOrderIndex++;\n            }\n            arrVolumeSell[counter] = volume;\n            counter++;\n            iteratePrice = tokens[symbolIndex].sellBook[iteratePrice].higherPrice;\n        }\n\n        return (arrPricesSell, arrVolumeSell);\n\n    }\n\n    //----------NEW ORDER - BID ORDER--------------//\n    function buyToken (string symbolName, uint priceInWei, uint amount) {\n        uint8 symbolIndex = getSymbolIndexOrThrow(symbolName);\n\n        if (tokens[symbolIndex].amountSellPrices == 0 || tokens[symbolIndex].curSellPrice > priceInWei){\n            // Limit order: we don't have sell orders to filfull this buy order, so we create a limit order.\n            // the amount of Ether we will spend to buy the token\n            uint totalAmountEthNecessary = priceInWei * amount;\n            // make sure we have enough Ether to buy the token\n            require(balanceEthForAddress[msg.sender] >= totalAmountEthNecessary);\n\n            // overflow check\n            require(totalAmountEthNecessary >= priceInWei);\n            require(totalAmountEthNecessary >= amount);\n            require(balanceEthForAddress[msg.sender] - totalAmountEthNecessary >= 0);\n\n            // first deduct the amount of Ether from user's balanceEthForAddress\n            balanceEthForAddress[msg.sender] -= totalAmountEthNecessary;\n            // Limit order: We don't have sell orders to filfull this buy order, so we need to create a limit order.\n            addBuyOffer(symbolIndex, priceInWei, amount, msg.sender);\n        } else {\n            /* Market order: current sell price is smaller or equal to\n            priceInWei (the buy price of this order),\n            so we can fulfill the order immediately.\n\n            Goal: Start from the curSellPrice (highest buy price), buy our tokens.\n            e.g. [sell: 60@5000] [sell: 50@4500] [buy: 500@6000]\n\n            Steps:\n            1. buy 50@4500\n            2. buy 60@5000\n            if still something remaining -> buyToken limit order.\n            */\n\n            uint iteratePrice = tokens[symbolIndex].curSellPrice;\n            uint remainingAmountToBuy = amount;\n            uint offers_key;\n            uint sellAmount;\n            uint ethToPay;\n            address seller;\n            while(iteratePrice <= priceInWei && remainingAmountToBuy >0){\n                offers_key = tokens[symbolIndex].sellBook[iteratePrice].offers_key;\n                // go through all sell orders at current iterating price\n                while (offers_key < tokens[symbolIndex].sellBook[iteratePrice].offers_length && remainingAmountToBuy >0){\n                    sellAmount = tokens[symbolIndex].sellBook[iteratePrice].offers[offers_key].amount;\n                    /*\n                     We can fulfill at least part of the buy order. There are two cases:\n                     1. the current iterated sell order offers less amount of tokens than\n                        we want to buy, so buy up the volume and try the next sell order, if exists.\n                     2. the current iterated sell order offers larger amount of tokens than\n                        we want to buy. Then this buy order is fully fulfilled.\n                     */\n                    if(remainingAmountToBuy >= sellAmount){\n                        ethToPay = iteratePrice * sellAmount;\n\n                        // substract eth from buyer's account\n                        require(balanceEthForAddress[msg.sender] >= ethToPay);\n                        balanceEthForAddress[msg.sender] -= ethToPay;\n\n                        //overflow check\n                        require(tokenBalanceForAddress[msg.sender][symbolIndex] + sellAmount >= tokenBalanceForAddress[msg.sender][symbolIndex]);\n                        seller = tokens[symbolIndex].sellBook[iteratePrice].offers[offers_key].who;\n                        require(balanceEthForAddress[seller] + ethToPay > balanceEthForAddress[seller]);\n\n                        tokens[symbolIndex].sellBook[iteratePrice].offers[offers_key].amount = 0;\n\n                        // add Ether to seller and token to buyer\n                        balanceEthForAddress[seller] += ethToPay;\n                        tokenBalanceForAddress[msg.sender][symbolIndex] += sellAmount;\n\n                        //emit an event to log the transaction\n                        emit BuyOrderFulfilled(symbolIndex, sellAmount, iteratePrice, offers_key);\n\n                        remainingAmountToBuy -= sellAmount;\n                    } else {\n                        ethToPay = iteratePrice * remainingAmountToBuy;\n\n                        // substract eth from buyer's account\n                        require(balanceEthForAddress[msg.sender] >= ethToPay);\n                        balanceEthForAddress[msg.sender] -= ethToPay;\n\n                        //overflow check\n                        require(tokenBalanceForAddress[msg.sender][symbolIndex] + remainingAmountToBuy >= tokenBalanceForAddress[msg.sender][symbolIndex]);\n                        seller = tokens[symbolIndex].sellBook[iteratePrice].offers[offers_key].who;\n                        require(balanceEthForAddress[seller] + ethToPay > balanceEthForAddress[seller]);\n\n                        tokens[symbolIndex].sellBook[iteratePrice].offers[offers_key].amount -=remainingAmountToBuy;\n\n                        // add Ether to seller and token to buyer\n                        balanceEthForAddress[seller] += ethToPay;\n                        tokenBalanceForAddress[msg.sender][symbolIndex] += remainingAmountToBuy;\n\n                        //emit an event to log the transaction\n                        emit BuyOrderFulfilled(symbolIndex, remainingAmountToBuy, iteratePrice, offers_key);\n\n                        remainingAmountToBuy = 0; // We have fulfilled this buy order.\n                    }\n\n                    // if the sell order we fulfilled is the last order of its price, we must raise the iteratePrice.\n                    if (offers_key == tokens[symbolIndex].sellBook[iteratePrice].offers_length -1 &&\n                    tokens[symbolIndex].sellBook[iteratePrice].offers[offers_key].amount == 0\n                    ){\n                        // we have less sellPrice.\n                        tokens[symbolIndex].amountSellPrices--;\n                        // We have fulfilled all sell orders on the sellBook. The last sellBook entry have lower price pointing to 0.\n                        // ?? I guess this logic can also use tokens[symbolIndex].amountBuyPrices == 0.\n                        if (tokens[symbolIndex].sellBook[iteratePrice].higherPrice == 0){\n                            // There is no more buy offers.\n                            tokens[symbolIndex].curSellPrice = 0;\n                        } else {\n                            tokens[symbolIndex].curSellPrice = tokens[symbolIndex].sellBook[iteratePrice].higherPrice;\n                            // modify lowPrice pointer of the next sellBook entry to point to 0.\n                            tokens[symbolIndex].sellBook[tokens[symbolIndex].curBuyPrice].lowerPrice = 0;\n\n                        }\n\n                    }\n                    offers_key++;\n                }\n                // We used up sell orders for the current iteratePrice so we move to a higher sell price to continue buying tokens.\n                iteratePrice = tokens[symbolIndex].curSellPrice;\n            }\n\n            // If we didn't buy enough tokens because there is no enough sell offers below our price, we create a limit order.\n            if (remainingAmountToBuy > 0){\n                // Why call buyToken() instead of addBuyOffer() here? Because addBuyOffer() only add new offer to sell book.\n                // No Ehter or token is deducted from any account.\n                buyToken(symbolName, priceInWei, remainingAmountToBuy);\n            }\n\n        }\n    }\n\n    //add limited buy order logic\n    function addBuyOffer(uint8 symbolIndex, uint priceInWei, uint amount, address who){\n        // assgin the current numOfCurrentBuyOffersAtSamePrice to offers_key.\n        tokens[symbolIndex].buyBook[priceInWei].offers_key = tokens[symbolIndex].buyBook[priceInWei].offers_length;\n        tokens[symbolIndex].buyBook[priceInWei]\n        .offers[tokens[symbolIndex].buyBook[priceInWei].offers_key] = Offer(who, amount);\n        tokens[symbolIndex].buyBook[priceInWei].offers_length++;\n\n        /* If this price exists before, we are done; otherwise we have to insert it to the\n        right place in the linked list of buy prices. */\n        if (tokens[symbolIndex].buyBook[priceInWei].offers_length == 1){\n            // There is no offers at this price before, so we need to increase the number of price.\n            tokens[symbolIndex].amountBuyPrices++;\n\n            //-----Find the right place ( set lowerPrice and higherPrice) for this price in Linked list--------\n            if (tokens[symbolIndex].lowestBuyPrice == 0 && tokens[symbolIndex].curBuyPrice == 0){\n                // there is no buy order yet, we insert the first one.\n                tokens[symbolIndex].buyBook[priceInWei].higherPrice = 0;\n                tokens[symbolIndex].buyBook[priceInWei].lowerPrice = 0;\n                tokens[symbolIndex].curBuyPrice = priceInWei;\n                tokens[symbolIndex].lowestBuyPrice = priceInWei;\n            } else if (priceInWei < tokens[symbolIndex].lowestBuyPrice) {\n                // priceInWei is the new lowest buy price.\n                tokens[symbolIndex].buyBook[priceInWei].higherPrice = tokens[symbolIndex].lowestBuyPrice;\n                tokens[symbolIndex].buyBook[priceInWei].lowerPrice = 0;\n                tokens[symbolIndex].buyBook[tokens[symbolIndex].lowestBuyPrice].lowerPrice = priceInWei;\n                tokens[symbolIndex].lowestBuyPrice = priceInWei;\n            } else if (priceInWei > tokens[symbolIndex].curBuyPrice){\n                //priceInWei is the new highest buy price.\n                tokens[symbolIndex].buyBook[priceInWei].lowerPrice = tokens[symbolIndex].curBuyPrice;\n                tokens[symbolIndex].buyBook[priceInWei].higherPrice = 0;\n                tokens[symbolIndex].buyBook[tokens[symbolIndex].curBuyPrice].higherPrice = priceInWei;\n                tokens[symbolIndex].curBuyPrice = priceInWei;\n            } else {\n                // priceInWei is somewhere in the middle, we need to find the right spot to insert.\n                uint iteratePrice = tokens[symbolIndex].curBuyPrice;\n                bool found = false;\n                while (iteratePrice > 0 && !found) {\n                    if (iteratePrice < priceInWei && tokens[symbolIndex].buyBook[iteratePrice].higherPrice > priceInWei){\n                        // we found the right place\n                        tokens[symbolIndex].buyBook[priceInWei].higherPrice =\n                        tokens[symbolIndex].buyBook[iteratePrice].higherPrice;\n                        tokens[symbolIndex].buyBook[priceInWei].lowerPrice = iteratePrice;\n\n                        tokens[symbolIndex].buyBook[tokens[symbolIndex].buyBook[iteratePrice].higherPrice].lowerPrice =\n                        priceInWei;\n                        tokens[symbolIndex].buyBook[iteratePrice].higherPrice = priceInWei;\n\n                        found = true;\n                    }\n                    iteratePrice = tokens[symbolIndex].buyBook[iteratePrice].lowerPrice;\n                }\n            }\n        }\n\n        // The last element of this Event is the offer_key.\n        emit LimitBuyOrderCreated(symbolIndex, msg.sender, amount, priceInWei,\n            tokens[symbolIndex].buyBook[priceInWei].offers_length -1);\n    }\n\n    //------------NEW ORDER - ASK ORDER------------//\n    function sellToken (string symbolName, uint priceInWei, uint amount){\n        uint8 symbolIndex = getSymbolIndexOrThrow(symbolName);\n\n        if (tokens[symbolIndex].amountBuyPrices == 0 || tokens[symbolIndex].curBuyPrice < priceInWei){\n            // Limit order: We don't have buy orders to filfull this sell order, so we need to create a limit order.\n            uint totalAmountEthWillReceived = priceInWei * amount;\n\n\n            // make sure we have enough tokens to sell\n            require(tokenBalanceForAddress[msg.sender][symbolIndex] >= amount);\n\n            // overflow check\n            require(tokenBalanceForAddress[msg.sender][symbolIndex] - amount >= 0);\n            // overflow check\n            require(totalAmountEthWillReceived >= priceInWei);\n            require(totalAmountEthWillReceived >= amount);\n            require(balanceEthForAddress[msg.sender] + totalAmountEthWillReceived >= balanceEthForAddress[msg.sender]);\n\n            // first deduct the amount of Token from user's tokenBalanceForAddress\n            tokenBalanceForAddress[msg.sender][symbolIndex] -= amount;\n            addSellOffer(symbolIndex, priceInWei, amount, msg.sender);\n\n            //  The following statement cause an exception--Stack too deep, so it is moved\n            // to the end of addSellOffer function.\n            //LimitSellOrderCreated(symbolIndex, msg.sender, amount, priceInWei,\n            //    tokens[symbolIndex].sellBook[priceInWei].offers_length);\n\n\n        } else {\n            /*Market order: current buy price is greater than or equal to\n            priceInWei (sell price of this order),\n            so we can fulfill the order immediately.\n\n            Goal: Start from the curBuyPrice (highest buy price), sell our tokens.\n            e.g. [buy: 60@5000] [buy: 50@4500] [sell: 500@4000]\n\n            Steps:\n            1. sell up the volume for 5000\n            2. sell up the volume for 4500\n            if still something remaining -> sellToken limit order.\n            */\n            uint iteratePrice = tokens[symbolIndex].curBuyPrice;\n            uint remainingAmountToSell = amount;\n            uint offers_key;\n            uint buyAmount;\n            uint ethToReceive;\n            address buyer;\n            while(iteratePrice >= priceInWei && remainingAmountToSell > 0) {\n                // buy orders at the same price should be treated as FIFO.\n                offers_key = tokens[symbolIndex].buyBook[iteratePrice].offers_key;\n                // go through all buy orders at current iterating price\n                while (offers_key < tokens[symbolIndex].buyBook[iteratePrice].offers_length && remainingAmountToSell >0){\n                    buyAmount = tokens[symbolIndex].buyBook[iteratePrice].offers[offers_key].amount;\n                    if(remainingAmountToSell >= buyAmount){\n                        // we sell more tokens than this buyer want, so we can fulfill this buyer's order.\n                        ethToReceive = iteratePrice * buyAmount;\n\n                        // actually subtract tokens from seller's account.buyAmount\n                        require(tokenBalanceForAddress[msg.sender][symbolIndex] >= buyAmount); //overflow check\n                        tokenBalanceForAddress[msg.sender][symbolIndex] -= buyAmount;\n\n                        // overflow check\n                        require(balanceEthForAddress[msg.sender] + ethToReceive >= balanceEthForAddress[msg.sender]);\n                        buyer = tokens[symbolIndex].buyBook[iteratePrice].offers[offers_key].who;\n                        require(tokenBalanceForAddress[buyer][symbolIndex] + buyAmount > tokenBalanceForAddress[buyer][symbolIndex]);\n\n                        tokens[symbolIndex].buyBook[iteratePrice].offers[offers_key].amount = 0;\n\n                        // add Ether to seller and token to buyer\n                        balanceEthForAddress[msg.sender] += ethToReceive;\n                        tokenBalanceForAddress[buyer][symbolIndex] += buyAmount;\n\n\n                        emit SellOrderFulfilled(symbolIndex,buyAmount, iteratePrice, offers_key);\n                        // update remainingAmountToSell\n                        remainingAmountToSell -= buyAmount;\n\n                    } else {\n                        /* this buyer want to buy more tokens than we can offer,\n                        so we reduce the amount of the buyer's order and then break\n                        because we already sell all tokens.\n                        */\n                        ethToReceive = iteratePrice * remainingAmountToSell;\n\n                        // actually subtract tokens from seller's account.buyAmount\n                        require(tokenBalanceForAddress[msg.sender][symbolIndex] >= remainingAmountToSell); //overflow check\n                        tokenBalanceForAddress[msg.sender][symbolIndex] -= remainingAmountToSell;\n\n                        // overflow check\n                        require(balanceEthForAddress[msg.sender] + ethToReceive >= balanceEthForAddress[msg.sender]);\n                        buyer = tokens[symbolIndex].buyBook[iteratePrice].offers[offers_key].who;\n                        require(tokenBalanceForAddress[buyer][symbolIndex] + buyAmount > tokenBalanceForAddress[buyer][symbolIndex]);\n\n                        tokens[symbolIndex].buyBook[iteratePrice].offers[offers_key].amount -= remainingAmountToSell;\n\n                        // add Ether to seller and token to buyer\n                        balanceEthForAddress[msg.sender] += ethToReceive;\n                        tokenBalanceForAddress[buyer][symbolIndex] += remainingAmountToSell;\n\n                        emit SellOrderFulfilled(symbolIndex, remainingAmountToSell, iteratePrice, offers_key);\n                        remainingAmountToSell = 0; // We have fulfilled this sell order.\n\n                    }\n\n                    // if the buy order we fulfilled is the last order of its price, we must lower the iteratePrice.\n                    if (offers_key == tokens[symbolIndex].buyBook[iteratePrice].offers_length -1 &&\n                        tokens[symbolIndex].buyBook[iteratePrice].offers[offers_key].amount == 0\n                    ){\n                        // we have less buyPrice.\n                        tokens[symbolIndex].amountBuyPrices--;\n                        // We have fulfilled all buy orders on the buyBook. The last buyBook entry have lower price pointing to 0.\n                        // ?? I guess this logic can also use tokens[symbolIndex].amountBuyPrices == 0.\n                        if (tokens[symbolIndex].buyBook[iteratePrice].lowerPrice == 0){\n                            // There is no more buy offers.\n                            tokens[symbolIndex].curBuyPrice = 0;\n                        } else {\n                            tokens[symbolIndex].curBuyPrice = tokens[symbolIndex].buyBook[iteratePrice].lowerPrice;\n                            // modify higherPrice pointer of the next buyBook entry to point to 0.\n                            tokens[symbolIndex].buyBook[tokens[symbolIndex].curBuyPrice].higherPrice = 0;\n\n                        }\n\n                    }\n                    offers_key++;\n                }\n                // update iteratePrice\n                iteratePrice = tokens[symbolIndex].curBuyPrice;\n            }\n\n            // If we didn't sell all tokens because there is no enough buy offers above our price, we create a limit order.\n            if (remainingAmountToSell > 0){\n                // Why call sellToken() instead of addSellOffer() here? Because addSellOffer() only add new offer to sell book.\n                // No ehter or token is deducted from any account.\n                sellToken(symbolName, priceInWei, remainingAmountToSell);\n            }\n\n        }\n    }\n\n    //add limited buy order logic\n    function addSellOffer(uint8 symbolIndex, uint priceInWei, uint amount, address who){\n        // assgin the current numOfCurrentSellOffersAtSamePrice to offers_key.\n        tokens[symbolIndex].sellBook[priceInWei].offers_key = tokens[symbolIndex].sellBook[priceInWei].offers_length;\n        tokens[symbolIndex].sellBook[priceInWei]\n        .offers[tokens[symbolIndex].sellBook[priceInWei].offers_key] = Offer(who, amount);\n        tokens[symbolIndex].sellBook[priceInWei].offers_length++;\n\n        /* If this price exists before, we are done; otherwise we have to insert it to the\n        right place in the linked list of sell prices. */\n        if (tokens[symbolIndex].sellBook[priceInWei].offers_length == 1){\n            // There is no offers at this price before, so we need to increase the number of price.\n            tokens[symbolIndex].amountSellPrices++;\n\n            //-----Find the right place ( set lowerPrice and higherPrice) for this price in Linked list--------\n            if (tokens[symbolIndex].highestSellPrice == 0 && tokens[symbolIndex].curSellPrice == 0){\n                // there is no sell order yet, we insert the first one.\n                tokens[symbolIndex].sellBook[priceInWei].higherPrice = 0;\n                tokens[symbolIndex].sellBook[priceInWei].lowerPrice = 0;\n                tokens[symbolIndex].curSellPrice = priceInWei;\n                tokens[symbolIndex].highestSellPrice = priceInWei;\n            } else if (priceInWei > tokens[symbolIndex].highestSellPrice) {\n                // priceInWei is the new highest sell price.\n                tokens[symbolIndex].sellBook[priceInWei].higherPrice = 0;\n                tokens[symbolIndex].sellBook[priceInWei].lowerPrice = tokens[symbolIndex].highestSellPrice;\n                tokens[symbolIndex].sellBook[tokens[symbolIndex].highestSellPrice].higherPrice = priceInWei;\n                tokens[symbolIndex].highestSellPrice = priceInWei;\n            } else if (priceInWei > tokens[symbolIndex].curSellPrice){\n                //priceInWei is the new lowest sell price.\n                tokens[symbolIndex].sellBook[priceInWei].lowerPrice = 0;\n                tokens[symbolIndex].sellBook[priceInWei].higherPrice = tokens[symbolIndex].curSellPrice;\n                tokens[symbolIndex].sellBook[tokens[symbolIndex].curSellPrice].lowerPrice = priceInWei;\n                tokens[symbolIndex].curSellPrice = priceInWei;\n            } else {\n                // priceInWei is somewhere in the middle, we need to find the right spot to insert.\n                uint iteratePrice = tokens[symbolIndex].curSellPrice;\n                bool found = false;\n                while (iteratePrice > 0 && !found) {\n                    if (iteratePrice < priceInWei && tokens[symbolIndex].sellBook[iteratePrice].higherPrice > priceInWei){\n                        // we found the right place\n                        tokens[symbolIndex].sellBook[priceInWei].higherPrice =\n                        tokens[symbolIndex].sellBook[iteratePrice].higherPrice;\n                        tokens[symbolIndex].sellBook[priceInWei].lowerPrice = iteratePrice;\n\n                        tokens[symbolIndex].sellBook[tokens[symbolIndex].sellBook[iteratePrice].higherPrice].lowerPrice =\n                        priceInWei;\n                        tokens[symbolIndex].sellBook[iteratePrice].higherPrice = priceInWei;\n\n                        found = true;\n                    }\n                    iteratePrice = tokens[symbolIndex].sellBook[iteratePrice].higherPrice;\n                }\n            }\n        }\n\n        emit LimitSellOrderCreated(symbolIndex, who, amount, priceInWei,\n            tokens[symbolIndex].sellBook[priceInWei].offers_length-1);\n    }\n\n    //-----------CANCEL LIMIT ORDER----------------//\n    function cancelOrder(string symbolName, bool isSellOrder, uint priceInWei, uint offerKey) public {\n        uint8 symbolIndex = getSymbolIndexOrThrow(symbolName);\n        if (isSellOrder){\n            require(tokens[symbolIndex].sellBook[priceInWei].offers[offerKey].who == msg.sender);\n            uint tokenAmountToRefund = tokens[symbolIndex].sellBook[priceInWei].offers[offerKey].amount;\n            // overflow check\n            require(tokenBalanceForAddress[msg.sender][symbolIndex] +  tokenAmountToRefund >= tokenBalanceForAddress[msg.sender][symbolIndex]);\n\n            tokenBalanceForAddress[msg.sender][symbolIndex] += tokenAmountToRefund;\n            tokens[symbolIndex].sellBook[priceInWei].offers[offerKey].amount = 0;\n            emit SellOrderCanceled(symbolIndex, priceInWei, offerKey);\n        } else {\n            require(tokens[symbolIndex].buyBook[priceInWei].offers[offerKey].who == msg.sender);\n            uint ethAmountToRefund = tokens[symbolIndex].buyBook[priceInWei].offers[offerKey].amount * priceInWei;\n            // overflow check\n            require(balanceEthForAddress[msg.sender] + ethAmountToRefund >= balanceEthForAddress[msg.sender]);\n\n            balanceEthForAddress[msg.sender] += ethAmountToRefund;\n            tokens[symbolIndex].buyBook[priceInWei].offers[offerKey].amount = 0;\n            emit BuyOrderCanceled(symbolIndex, priceInWei, offerKey);\n        }\n\n    }\n}\n",
  "sourcePath": "/Volumes/Samsung_T5/CODE/EthereumProjects/Exchange/Truffle/contracts/Exchange.sol",
  "compiler": {
    "name": "solc",
    "version": "0.4.23+commit.124ca40d.Emscripten.clang"
  },
  "schemaVersion": "2.0.0",
  "updatedAt": "2018-09-28T02:18:19.934Z"
}